:100000000C940E020C9455020C9455020C9455025B
:100010000C9455020C9455020C9455020C94550204
:100020000C9455020C9455020C9439240C940D2513
:100030000C94701F0C9455020C9455020C945502AC
:100040000C9455020C9455020C9455020C945502D4
:100050000C9455020C94C71F0C9455020C94550235
:100060000C9455020C9455020C9455020C945502B4
:100070000C9455020C9455020C9455020C945502A4
:100080000C9455020C9455020C9455020C94550294
:100090000C9455020C9455020C9455020C94550284
:1000A0000C9455020C9455020C9455020035001E18
:1000B000001F002000210022007C007D002300247E
:1000C000002500260027002A002B0014001A000833
:1000D0000015001700A9002F001C0018000C0012CA
:1000E0000013003100390004001600070009000A5F
:1000F00000000000000B000D000E000F0033003464
:1001000000E1001D001B00060019000500AA0030D8
:100110000011001000360037003800E500E000E371
:1001200000E20050004F00000000000000000051FD
:100130000052002D002E00E40000004D00A8002C0D
:10014000004A00290049004600605D4B0028004C31
:10015000004E00000029003A003B003C003D003EFC
:1001600000440045003F0040004100420043002A97
:10017000002B0001000100AC00AE00AB000603073D
:100180005D01005F00600061005300615D390001A6
:100190000052000100AA00A9000000000001005C5C
:1001A000005D005E0001002800E100500051004F9A
:1001B00000010001001903085D010059005A005BAD
:1001C000000100E500E000E300E2000100010000A2
:1001D000000000000000006200630058000100E41D
:1001E0000000000100055D045D0100010001000147
:1001F000005F5D01000100065D01000000000000DD
:1002000000000000002A2B28000000000000000071
:10021000000000000000000029000000002C1E3437
:1002200020212224342627252E362D3738271E1F3D
:10023000202122232425263333362E37381F040568
:10024000060708090A0B0C0D0E0F101112131415D6
:10025000161718191A1B1C1D2F3130232D350405B4
:10026000060708090A0B0C0D0E0F101112131415B6
:10027000161718191A1B1C1D2F3130354C000000A1
:10028000000000000000000000000000000000006E
:10029000000000000000000000000000000000005E
:1002A000007E0F00D4FFFFFFC70000007812034557
:1002B00000720067006F0044006F006E0065000070
:1002C0000012034B002E0054002E0045002E004368
:1002D000002E0000000403090409023B0002010093
:1002E000A0FA090400000103010100092111010025
:1002F000012240000705810308000A0904010001EA
:100300000300000009211101000122B60007058247
:100310000320000A1201100100000008091228231E
:1003200001000102000105010902A1018502090184
:10033000A100050919012908150025019508750175
:1003400081020501093009311581257F9502750863
:10035000810609381581257F950175088106050CF0
:100360000A38021581257F950175088106C0C005F0
:10037000010980A101850319012AB700150126B7DB
:1003800000950175108100C0050C0901A1018504CB
:1003900019012AA002150126A002950175108100FD
:1003A000C005010906A1018505050719E029E71522
:1003B0000025019508750181020507190029EF152F
:1003C00000250195F075018102050819012905959F
:1003D0000575019102950175039101C0050109069A
:1003E000A101050719E029E7150025019508750108
:1003F00081029501750881010507190029FF150083
:1004000026FF009506750881000508190129059544
:100410000575019102950175039101C011241FBE5C
:10042000CFEFDAE0DEBFCDBF04B603FE27C0809178
:10043000EA059091EB05A091EC05B091ED058730B0
:10044000904BA740B04BD1F41092EA051092EB0507
:100450001092EC051092ED0514BE84B7877F84BF1F
:100460000FB6F894A8958091600088618093600031
:10047000109260000FBEE0E0F8E3099511E0A0E003
:10048000B1E0E2EBFEE402C005900D92AA37B1079D
:10049000D9F725E0AAE7B1E001C01D92AA3EB20754
:1004A000E1F70E9475210C942F270C940000109204
:1004B000B9008AE08093B800089594EA9093BC0054
:1004C0009091BC0097FFFCCF9091B900987F983035
:1004D00011F0903199F48093BB0084E88093BC00C4
:1004E0008091BC0087FFFCCF9091B900987F983134
:1004F00019F081E0903409F480E0089581E00895D6
:100500000C945D0284E98093BC008091BC0084FD62
:10051000FCCF08958093BB0084E88093BC00809159
:10052000BC0087FFFCCF9091B900987F81E09832A2
:1005300009F480E0089584E88093BC008091BC00B9
:1005400087FFFCCF8091BB00089580B38F7080BB84
:1005500081B38F7081BB84B1897F84B985B1897F74
:1005600085B90C941B046E98769A8AB183768AB901
:100570008BB18C698BB93E98469A24982C9A0C942E
:10058000500408950C94C1020E94A5020E94B30277
:10059000E0EDF1E08CE791E011921192DC012EE0A8
:1005A0001D922150E9F70E9621E0EC3DF207A1F7EC
:1005B0000C945E060E94A5020E94B302E0EDF1E0F9
:1005C000118210821382128215821482178216827F
:1005D000118610861386128608959EE0899FF00189
:1005E0001124E458FE4F30E020E050E040E061E0AC
:1005F00070E09191992359F0DF01119791509C93EC
:100600002F5F3F4F2E303105A1F7CA010895CB016E
:10061000022E02C0880F991F0A94E2F7482B592B2B
:10062000EFCFCF932EE0629FB001112430E020E0A5
:10063000A1E0B0E0C5E0AD01022E02C0440F551F9D
:100640000A94E2F748235923452B31F0FB01E20FCE
:10065000F31FE458FE4FC0832F5F3F4F2E3031050C
:1006600051F7CF9108954F925F927F928F929F9210
:10067000AF92BF92CF92DF92EF92FF920F931F93B0
:10068000CF93DF930E94360400ED11E0C0E0D1E08B
:10069000C33009F47FC008F06FC0C13009F474C0E2
:1006A000C23009F474C0849A8C988C2F0E941F0465
:1006B00080EA8A95F1F78C2F0E94ED027C010E945E
:1006C00081044B996DC0A0E4CA2ED12C4A996BC00D
:1006D000A0E2B0E04C996AC0F0E14F2E512C36995F
:1006E00068C068E070E04F9967C044E050E06699E8
:1006F00066C022E030E073B0F801A190B1908F01A4
:100700007294EFE07E227D2670FA882480F8912C86
:10071000882999298C299D298A2B9B2B8429952905
:10072000862B972B842B952B822B932B8A259B250D
:100730008E219F21A826B9266C2F0E941103F80153
:100740003297B182A0820E94A502CF5FC63009F025
:100750009FCF0E94640681E0DF91CF911F910F919E
:10076000FF90EF90DF90CF90BF90AF909F908F90D1
:100770007F905F904F900895C43079F0C53009F0B4
:1007800092CF229A2A9891CF859A8D988ECF869A69
:100790008E988BCF879A8F9888CF219A299885CF6A
:1007A000D12CC12C93CFB0E0A0E094CF512C412CA0
:1007B00096CF70E060E097CF50E040E098CF30E017
:1007C00020E099CFE82FF0E0EE0FFF1FE053FE4F3F
:1007D0008081918108950895853008F08F5F209180
:1007E000DC0130E0A90102C0559547958A95E2F7F2
:1007F000CA01817008951F93CF93DF93182FD62FCE
:10080000C091DD01CC2391F080E40E945D02C82FED
:1008100081110AC0812F0E948A02C82F811104C051
:100820008D2F0E948A02C82F0E9482028C2FDF9196
:10083000CF911F9108956FEF81E00C94FB038F5FC0
:1008400061E070E001C0660F8A95EAF7609581E08B
:100850000C94FB036FEF82E00E94FB036FEF8CE0D0
:100860000E94FB036FEF81E00C94FB0380E40E9485
:100870005D0281110DC00E9482028091DD01811113
:100880000EC081E08093DD010E942A040C944E1773
:100890008091DD01813019F41092DD01F7CF0895C8
:1008A0000E9457020C9436040F931F93CF93DF934B
:1008B000D82F8B01C091DD01CC23C1F080E40E94D0
:1008C0005D02C82F811110C08D2F0E948A02C82F8F
:1008D00081110AC081E40E948002C82F811104C0E6
:1008E0000E949B02F80180830E9482028C2FDF917C
:1008F000CF911F910F9108956CED71E082E10C94FE
:1009000054048F929F92AF92BF92FF920F931F93C6
:10091000CF93DF930E947C04CDE0D0E010E000E0B4
:100920008DE0F82E812C912C540183948F2D8C1BFB
:100930000E94EC03882361F0D501C4010C2E04C091
:10094000880F991FAA1FBB1F0A94D2F7082B192BD7
:10095000219760F7C801DF91CF911F910F91FF9010
:10096000BF90AF909F908F90089525982D980895EF
:10097000259A2D9A089526982E980895269A2E9AAB
:10098000089523982B980895239A2B9A08952098D8
:10099000289A0895209A289808950E94B5040E94E4
:1009A000BB040E94C1040C94C70484B1886684B956
:1009B00085B1877985B9209A289A559A5D9A0895C4
:1009C0000E94CD040E94B8042FEF80E792E02150EE
:1009D00080409040E1F700C000000E94BE042FEF6D
:1009E00080E792E0215080409040E1F700C0000095
:1009F0000E94C4042FEF80E792E021508040904095
:100A0000E1F700C000000E94B5042FEF80E792E0FC
:100A1000215080409040E1F700C000000E94BB04DC
:100A20002FEF80E792E0215080409040E1F700C036
:100A300000000E94C1040C94CD040E94D5040E94C1
:100A4000E0040C946E05CF93DF93FB018F352DE509
:100A50009207C1F020F4C99709F1C1E00FC08036B8
:100A60002DE59207B1F081369D45B9F7C281CC23BF
:100A700029F08CEA90E00E94A507C0E08C2FDF915E
:100A8000CF910895C281CC23C9F380E00E944B0628
:100A9000F4CFC28181E0CC2389F3F8CFD281DD236A
:100AA000E1F2C091DE01CC2329F00E94B50410923E
:100AB000DE01E4CF0E94B80481E08093DE01CD2FF7
:100AC000DDCF0E94C21D682F70E090E080E00E94A0
:100AD000B207811102C00C94C40408950C946105FE
:100AE000CF92DF92EF92FF926B017C010E94CD04C6
:100AF000C701B6010E94B207813011F40E94CA04F6
:100B00008091DE0181110E94B8040E946105C70135
:100B1000B601FF90EF90DF90CF9008950C94CD0434
:100B20000C946105CF93DF939C013A9521153F41C9
:100B300068F5EC01CC27D170DC01AA27B270AC01BA
:100B4000442754709C012227387094FF11C080E123
:100B5000CD2B09F480E0AB2B09F08062452B09F026
:100B60008064232B09F08068FB01DF91CF91099409
:100B700081E0CD2B09F480E0AB2B09F08260452B9E
:100B800009F08460232B81F38860EECFDF91CF9151
:100B90000895CF93DF93EC01805E9109089720F0D0
:100BA0006AE277E1209711F46FEC74E1CE010E94C4
:100BB00092058C2FDF91CF910C94C813CF93DF93C4
:100BC000EC010E945A14CE01805E9109089720F032
:100BD00061E377E1209711F466ED74E1CE01DF91D6
:100BE000CF910C949205CF93DF93EC010E94C9053D
:100BF000CE01DF91CF910C94DE0581E008950C9435
:100C0000230508950C9401061F93CF93DF9300D022
:100C100000D00F92CDB7DEB749835A836B833091F2
:100C2000100589819A8131111DC06623B9F02223F4
:100C3000A9F00E94361C182F682F89819A810E9482
:100C4000E21B69817A81812F0F900F900F900F9096
:100C50000F90DF91CF911F910C9412080E940E1CEF
:100C6000182FEFCF0E94361C69817A81EDCFFC01ED
:100C7000262F408151816281738184810C94040606
:100C8000CF93DF93EC0160E00E943706BE01DF9155
:100C9000CF910C940206CF93DF93C1E0D0E002C065
:100CA000CC0FDD1F8A95E2F78C2F0E94C61DBE0176
:100CB00090E080E0DF91CF910C94E61A0E94740BD3
:100CC0000E94380E0C941D050C94C20208950E94D7
:100CD0004E170E9466062FEF84E39CE0215080406F
:100CE0009040E1F700C000000C94EB1F0F931F939E
:100CF000CF93DF938C0161E00E943706EC01B801CD
:100D00000E949A11882309F441C0B801CE010E94C3
:100D1000FF058823D9F1B801CE010E94C30E8823B4
:100D2000A9F1B801CE010E944D0F882379F1B801D5
:100D3000CE010E949F0F882349F1B801CE010E9485
:100D4000C210882319F1F8018281882361F0CB3524
:100D5000FDE5DF0721F170F4C115ECE5DE07A1F038
:100D6000CF3DDC45C9F0C801DF91CF911F910F91B4
:100D70000C94FD05CC358DE5D807A1F0CD35DD45CA
:100D800091F70E94DD1CEFCF0E94670680E0DF91A3
:100D9000CF911F910F9108950E945D1EF7CF0E9481
:100DA000E61CE1CF0E94E91CDECFDF92EF92FF92BA
:100DB0000F931F93CF93DF93E82FF0E0E350FE4FA4
:100DC000D490282F26952695269530E0F901E356F4
:100DD000FD4F0491877010E0082E02C0159507950D
:100DE0000A94E2F701701127F901E357FD4FE490EF
:100DF000F12C082E02C0F594E7940A94E2F791E0F2
:100E0000E922FF24F901E358FD4FC491D0E002C06C
:100E1000D595C7958A95E2F7C170DD2701151105B3
:100E200019F081EE0E94C813E114F10419F086EE66
:100E30000E94C8138D2D0E94C714EF2819F086EE6A
:100E40000E945A14012B19F081EE0E945A14CD2BE6
:100E500051F08CE2DF91CF911F910F91FF90EF90B5
:100E6000DF900C94C714DF91CF911F910F91FF90E9
:100E7000EF90DF900895EF92FF920F931F93CF931F
:100E8000DF938C01F62E8AE0E82EF8018491882306
:100E900009F454C0813009F04DC0E8012196FE01EB
:100EA0008491813091F42196FE0184910E94C714AF
:100EB0008E010F5F1F4F8F2D815038F3EFE9FFE058
:100EC0003197F1F700C00000F7CF823039F4E80124
:100ED0002296FE0184910E94C813EACF833039F430
:100EE000E8012296FE0184910E945A14E1CF8430D9
:100EF000F9F6E8012296FE01249190E080E0FE01DF
:100F000031962053330B2A30310548F0019780F297
:100F1000EFE9FFE03197F1F700C00000F7CFE89E5E
:100F2000A001E99E500D1124C901840F951F249141
:100F3000EF01E5CF0E94D506E801BACFDF91CF914E
:100F40001F910F91FF90EF90089560E00C943B0784
:100F5000982F9F709A50963018F0805D0C94D506AB
:100F6000895AFCCFCF92DF92EF92FF926C01EE2470
:100F7000FF2420E0C114D104E104F10419F0C701F9
:100F8000B60120E1C72ED82EE92EFF24C114D104CA
:100F9000E104F10419F0285FC701B6016B017C017F
:100FA00054E0F694E794D794C7945A95D1F7C114B6
:100FB000D104E104F10419F02C5FC701B6016B0103
:100FC0007C0142E0F694E794D794C7944A95D1F710
:100FD000C114D104E104F10419F02E5FC701B60178
:100FE0009695879577956795672B682B692B09F000
:100FF0002F5F822FFF90EF90DF90CF90089508959C
:101000000C94FF0781E008950C940208CF93C82F39
:101010000E9400088C2FCF910C94040890E080E08F
:1010200008950895972F70E02EE0929F600D711D36
:101030001124FB0194E5899FE00DF11D1124EE0FB1
:10104000FF1FE355FF4F859194910895FC01EE0F2A
:10105000FF1FE355FD4F859194910895CF93DF9342
:101060000E9412080E944309EC01811520E59207B5
:1010700008F042C0811530E4930708F0BDC0883EF7
:10108000910528F5803E910508F09DC0883A9105AC
:1010900088F4853A910508F08FC08130910509F4F4
:1010A00092C0009709F48FC0049708F08CC0D0E07C
:1010B000C0E089C08F3B910508F489C0805C91092C
:1010C000C03CD105A0F30E942608EC017CC081152C
:1010D000904250F4C11581E0D80708F074C0CD3EAD
:1010E000D10528F3D0656FC0C11590E3D90708F08A
:1010F00079C0CE019F70E7CF811525E5920758F59D
:10110000811534E5930708F0A6C0811542E59407E0
:1011100050F4C11581E5D80708F471C0DC2FCC2745
:10112000C16FD06A50C0982F969596959E012370F6
:101130003327C115D34508F07FC0C1E0D0E002C01D
:10114000CC0FDD1F2A95E2F720E2929FC001112407
:10115000C82BD92B6FC0C11589E5D807A8F4C115D4
:1011600098E5D90708F07CC0C11526E5D20708F03C
:101170009ECF8C2F0E94DA09C82FD0E0DC2FCC271D
:10118000CC27DF71D0621FC0C1153AE5D30708F440
:101190006CC0CE0190568115904208F088CF8D2FFB
:1011A0008F710E94DA0990E0982F882788279F7115
:1011B0009C012C2BE901E6CFC55AD0E0CB5BDE4F7A
:1011C000C881D0E0D064CE01DF91CF910895C85A94
:1011D000D0E0CC0FDD1FC95EDE4F0990D881C02D55
:1011E000D464F1CFCE019927D3FF03C0EC01D86CB2
:1011F000EACFEC01D06CE7CFDF70D06AE4CFCE014C
:10120000E4E096958795EA95E1F783702C2F269573
:101210002695237090E2299F90011124382B8C2F62
:101220008370C1E0D0E002C0CC0FDD1F8A95E2F7E9
:10123000C22BD32BDC68C7CFC1E0D0E002C0CC0FFB
:10124000DD1F2A95E2F730E2939FC0011124C82BDD
:10125000D92BDA68B8CFD82FCC27C46FD06AB3CFD8
:10126000DC2FCC27C06FD06AAECF8C2F8F700E943E
:10127000DA0934E0D695C7953A95E1F7CF709C2FFF
:10128000EC01D069A0CF82389105B1F1B0F481337F
:10129000910509F475C048F48932910509F469C0D3
:1012A0008A32910509F473C008958533910509F4D4
:1012B00059C08933910501F10895833E9105A9F143
:1012C00038F4803E9105F9F0823E910549F1089588
:1012D000863E9105A9F1873E9105C9F1843E9105AD
:1012E00019F52091D20521FF1FC08091D10584FD01
:1012F00014C087EE90E008952091D1052370A1F0ED
:1013000080EE90E008952091D10520FD47C03091F6
:10131000D20530FF09C024FF44C090E080E004C043
:101320002091D10522FDF7CF08952091D10522FD0E
:101330003BC03091D20530FDE3CF24FFF5CFEDCF98
:101340002091D10523FFF0CF24FDE7CFD2CF20910C
:10135000D10523FD2CC03091D20531FFEECF84EEB4
:1013600090E008952091D10525FFDECF89E290E03D
:1013700008952091D10525FFD7CF85E390E008950A
:101380002091D10526FFD0CF8AE290E008952091E8
:10139000D10526FFC9CF81E390E0089589E390E06D
:1013A000089583EE90E0089582EE90E0089586EE31
:1013B00090E008959091D10592FF06C0282F2871E2
:1013C0002830F9F4877F846093FF06C0282F2871A6
:1013D0002831F1F4877E84612091D20520FF06C078
:1013E000382F38713830D9F4877F816021FF06C0EB
:1013F000282F28712831D1F4877E816194FD877E62
:101400000895282F24712430F9F68B7F8860DCCF73
:10141000282F2471243101F78B7E8861DDCF382F8E
:101420003171313019F78E7F8860E0CF282F21711C
:10143000213121F78E7E8861E1CFAF92BF92CF92AA
:10144000DF92EF92FF920F931F93CF93C0E0CC24D3
:10145000C394D12CE82EF12C8C2F0E94E2035C0166
:1014600010E000E0C601002E02C0880F991F0A9408
:10147000E2F78A219B21892B99F40F5F1F4F0E30D1
:10148000110581F7CF5FC63039F780E0CF911F910A
:101490000F91FF90EF90DF90CF90BF90AF900895A5
:1014A000602F7C2F80E00E941208E816F90629F7C9
:1014B00081E0ECCFCF93C82F8CE20E941D0A8823D5
:1014C00021F08C2FCF910C941D0A80E0CF910895CC
:1014D000CF93C5E6C15009F0CAC089E20E945A0AFA
:1014E000811100C18AE20E945A0A81110E945D1E88
:1014F00085E00E945A0A81110E94EB1F87E00E943A
:101500005A0A882371F08BE10E945A0A882309F451
:10151000B7C09091AD05892F8D7F91FF8260809338
:10152000AD058091AD050E94BD1D80EE0E945A0A56
:10153000882341F09091D105892F8E7F90FF8160A3
:101540008093D10589E30E945A0A882341F0909143
:10155000D105892F8D7F91FF82608093D10582EE26
:101560000E945A0A882341F09091D105892F8B7FE0
:1015700092FF84608093D10586EE0E945A0A8823E8
:1015800041F09091D105892F877F93FF88608093E8
:10159000D10583EE0E945A0A882341F09091D1052B
:1015A000892F8F7E94FF80618093D10585E30E940F
:1015B0005A0A882341F09091D105892F8F7D95FF9C
:1015C00080628093D10581E30E945A0A882341F00A
:1015D0009091D105892F8F7B96FF80648093D105F0
:1015E00081E10E945A0A882341F09091D105892F08
:1015F00097FB87F980588093D1058091D105909110
:10160000D2050E94D91D87E20E945A0A811155C055
:101610008EE10E945A0A811152C08FE10E945A0A3B
:1016200081114FC080E20E945A0A81114CC081E2B0
:101630000E945A0A811149C082E20E945A0A81110D
:1016400046C083E20E945A0A811143C084E20E948C
:101650005A0A8111C0E88C2F0E94C61D8FE00E949B
:101660005A0A8823C1F181E0CF910C945F1E0E9439
:1016700033038FE39CE90197F1F700C000002ACF04
:101680008EE00E945A0A882339F09091AD05892F87
:101690008B7F92FF846043CF80E10E945A0A909131
:1016A000AD05882329F0892F877F93FF886037CF86
:1016B000892F8E7F90FF816032CFC1E0CCCFC2E016
:1016C000CACFC4E0C8CFC8E0C6CFC0E1C4CFC0E233
:1016D000C2CFC0E4C0CF85E10E945A0A882311F02E
:1016E00080E0C2CFCF9108950E94AE1D811102C04B
:1016F0000E945D1E0E94B91D8093AD050E94CB1D06
:101700009093D2058093D1050E94680A0E94C21D61
:10171000682F70E090E080E00E94E61A60918005FA
:101720007091810580918205909183050C941E1B18
:101730008091E70180FF12C06091040185E0689FFD
:10174000B001112475956795759567956038710599
:10175000A8F561157105A1F1862F089581FF09C0D3
:101760006091040185E0689FB0011124759567952B
:10177000EDCF6091040182FD0AC08091E6018823CB
:10178000D1F09091030160910401891728F085E060
:10179000689FB0011124DACF869FB001112485E043
:1017A000869F9001879F300D1124692F70E0C90139
:1017B0000E94BF26CBCF65E070E0CECF8FE70895C3
:1017C00081E008958091E70180FF0CC060910101E4
:1017D00070E075956795759567956115710549F187
:1017E000862F089581FF06C06091010170E0759514
:1017F0006795F3CF6091010182FD0BC09091E501E7
:101800009923A1F06091000180910101961738F0B1
:10181000682F70E06038710500F38FE70895899FA5
:10182000C001112470E00E94BF26F4CF61E070E097
:10183000D7CF81E008958D3E31F40E94980B8195B9
:101840008093EB0108958E3E19F40E94980BF8CF17
:101850008F3E31F40E94980B81958093EA010895A0
:10186000803F19F40E94980BF8CF893F29F40E9419
:10187000E20B8093EC0108958A3F21F40E94E20B71
:101880008195F7CF8B3F31F40E94E20B81958093D5
:10189000ED0108958C3F19F40E94E20BF8CF9FE010
:1018A000980F983070F4815F990B21E030E001C00F
:1018B000220F8A95EAF78091E901822B8093E90152
:1018C00008958D3F31F48091E70181608093E701B5
:1018D00008958E3F21F48091E7018260F7CF8F3F1A
:1018E000B9F78091E7018460F1CF4091EA018D3E24
:1018F00059F48091EB0187FF0DC01092EB0141116B
:101900000BC01092E60108C08E3E81F48091EB017D
:1019100018169CF3442381F08091EC019091ED0125
:10192000892B09F05AC01092E50108958F3E49F4C1
:1019300047FFF0CF1092EA018091EB018111ECCFCB
:10194000E0CF803F19F41416ACF3E4CF9091EC0192
:10195000893F29F41916F4F61092EC01DBCF8A3F87
:1019600019F497FFD7CFF8CF9091ED018B3F29F471
:1019700097FFD0CF1092ED01CDCF8C3F19F41916FF
:10198000CCF3C8CF9FE0980F983090F4815F990B0B
:1019900021E030E0B90102C0660F771F8A95E2F7B7
:1019A000CB0180959091E90189238093E901B2CF21
:1019B0008D3F31F48091E7018E7F8093E701AACFBC
:1019C0008E3F21F48091E7018D7FF7CF8F3F09F0A3
:1019D000A1CF8091E7018B7FF0CF08950E94A01FD7
:1019E0009C019091EA018091EB01982B21F03093BA
:1019F000E4012093E3019091EC018091ED01982B9B
:101A000021F03093E2012093E10188EE91E00C9403
:101A10005F12EF92FF920F931F93CF93DF9300D04B
:101A200000D000D0CDB7DEB786E0E8EEF1E0DE0111
:101A3000119601900D928A95E1F7E090EA01F090FD
:101A4000EB010091EC011091ED011092EA0110926E
:101A5000EB011092EC011092ED018E2D8F2991F087
:101A60008091E3019091E4010E94B81FAC01909134
:101A7000E601992309F43FC08091050184171506FA
:101A800008F447C0802F812B91F08091E101909163
:101A9000E2010E94B81FAC019091E501992309F47D
:101AA00077C0809102018417150608F47FC08091E9
:101AB000EA019091EB01892B9091EC01892B909197
:101AC000ED01892B11F00E94EE0C86E0FE013196AB
:101AD000A8EEB1E001900D928A95E1F726960FB637
:101AE000F894DEBF0FBECDBFDF91CF911F910F9154
:101AF000FF90EF9008952091E0018AE0289F9001E7
:101B000011242417350708F0BDCF9F5F9093E6019D
:101B100002C09F3FD1F7EE2059F00E94980B9FEF33
:101B20001E140CF491E0899F802D11248093EA010A
:101B3000FF2059F00E94980B9FEF1F140CF491E0C6
:101B4000899F802D11248093EB013091EA0133238A
:101B500009F498CF2091EB01222309F493CF45EBB0
:101B60003403C0011124992359F09093EA0145EB05
:101B7000240390011124332339F03093EB0182CFF9
:101B800081E08093EA01F3CF81E08093EB017ACF8B
:101B90002091DF018AE0289F900111242417350746
:101BA00008F085CF9F5F9093E50102C09F3FD1F77A
:101BB000002359F00E94E20B9FEF10160CF491E005
:101BC000899F802D11248093EC01112359F00E94EC
:101BD000E20B9FEF11160CF491E0899F802D1124E8
:101BE0008093ED013091EC01332309F460CF209113
:101BF000ED01222309F45BCF45EB3403C00111242E
:101C0000992359F09093EC0145EB240390011124A2
:101C1000332339F03093ED014ACF81E08093EC011A
:101C2000F3CF81E08093ED0142CF86E0E8EEF1E072
:101C3000DF011D928A95E9F71092E6011092E50105
:101C40001092E7010895CF93DF93EC0197FF0CC04A
:101C5000FB018281882341F00E944E0ECE019F77C6
:101C60000E94A80E0E94890E81E0DF91CF91089515
:101C70008CE090E00E94ED2690E0B0E0A0E0809340
:101C8000D3059093D405A093D505B093D6050895B8
:101C90006091D3058CE090E00C94FB260E943812F2
:101CA000869581708093D8059091D305913029F461
:101CB000882319F089E30E94C7140E94EC1C8093CA
:101CC000D7050E94FF1C8091D305813089F08823BD
:101CD00059F0823091F08430B9F08FE39CE901979C
:101CE000F1F700C00000089582EE0E94C813F5CFFE
:101CF00088E193E00E94F305F0CF82EE0E94C813C2
:101D000087E50E94C714E9CF86EE0E94C71488E1D8
:101D1000F8CF8091D305813071F0882341F0823073
:101D200031F0843099F08091D7050C94FC1C82EE40
:101D30000E945A14F8CF8CE20E94C7148091D805F3
:101D4000882389F389E30E94C714EDCF88E2FBCF93
:101D50000F931F93CF93DF938C01CCE0D0E0C801A9
:101D60000C2E02C0969587950A94E2F78F700E9418
:101D7000A8072497CC3F8FEFD80789F7DF91CF9141
:101D80001F910F9108950F931F93CF93DF93EC0151
:101D90008B01FB018281882361F00E94EC1CCE0143
:101DA000825E9C458530910520F48093D3050E9486
:101DB000480EB801CE01DF91CF911F910F910C9485
:101DC000230E0F931F93CF93DF93C42FD22FFC01C9
:101DD00082818823C9F04093F0010E94A01F909354
:101DE000EF018093EE0180E28C0F883008F050C044
:101DF000C77081E001C0880FCA95EAF7DF91CF91E3
:101E00001F910F910C94CF141091F001141335C051
:101E10008091EE019091EF010E94B81F883C9105DE
:101E200060F5C0E2CD0F1D17B9F080E2810F883058
:101E300040F4177081E001C0880F1A95EAF70E94FC
:101E4000D614C83048F481E09D2F977001C0880FE8
:101E50009A95EAF70E94CF14802F0E94C714C830C9
:101E6000B8F4D77081E001C0880FDA95EAF7DF9106
:101E7000CF911F910F910C94D61480E28C0F883073
:101E800038F4C77081E001C0880FCA95EAF7EFCF38
:101E9000DF91CF911F910F9108950F939C01CB017A
:101EA000243F4CE5340759F1A8F4293DFCE53F07F0
:101EB00001F12A3D4CE53407D1F1283D3C4591F430
:101EC00006E221EE41EE68ED7CE50E94E10E80E045
:101ED0000F910895263FFCE53F07E9F0B0F0273F5A
:101EE0003C45F9F0FC018281882339F11092F00120
:101EF000EFCF07E225EE45EE69ED7CE5E6CF06E2A1
:101F000021EE40EE64EF7CE5E0CF07E225EE44EE03
:101F100065EF7CE5DACF06E221EE42EE66EF7CE586
:101F2000D4CF07E225EE46EE67EF7CE5CECF08E2A0
:101F300021E045EE6AED7CE5C8CF81E0C9CFCF93C3
:101F4000DF93EC01FB018281882309F419C1C230BF
:101F5000FCE5DF07C0F1C6319CE5D90730F09E01F2
:101F60002B5F3C452930310570F50E94CB1D9093C5
:101F7000D2058093D105C031ECE5DE0709F4CFC06E
:101F800008F05BC0C8308CE5D80709F4B6C088F506
:101F9000C430ECE5DE0709F4A8C0C0F4C2308CE51B
:101FA000D80709F49CC08091D1058260C330DC451C
:101FB00009F498C08091D1059091D2050E94D91D55
:101FC0000E944E1780E0DF91CF9108958091D10556
:101FD0008061C630ECE5DE0709F484C08091D1054C
:101FE0008860C730DC4508F47DC08091D1058062EF
:101FF00079C0CC308CE5D80709F489C070F48091A1
:10200000D1058C60CA30ECE5DE0709F46BC008F43A
:1020100078C08091D1058E7F65C0CE308CE5D80721
:1020200009F479C08091D1058B7FCF30DC4508F46D
:1020300059C08091D1058F7E55C0CC3FECE5DE07BD
:1020400009F457C030F5C3318CE5D80709F46FC0E7
:1020500078F4C131ECE5DE0709F465C0C231DC4536
:1020600009F0A8CF0E944E178091D1058F773AC012
:10207000C5318CE5D80709F462C008F476C08091B8
:10208000D2058160CB3FDC4509F094CF8093D20527
:1020900091CFC115FDE5DF0709F44DC088F48091AB
:1020A000D2058D7FCE3F9CE5D90781F38091D20583
:1020B0008E7FCF3FDC4550F38091D2058360E6CF21
:1020C000C230FDE5DF0709F459C008F444C080E0E0
:1020D000C330DD4509F06ECF0E945F1E6BCF80914B
:1020E000D10581608093D10565CF8091D105846051
:1020F000F9CF8091D2058260C9CF8091D1058064EB
:10210000F1CF0E944E178091D1058068EBCF80916E
:10211000D1058D7FE7CF8091D105877FE3CF809177
:10212000D1058F7DDFCF8091D1058F7BDBCF809173
:10213000D105837FD7CF8091D2058C7FA7CF8091A7
:10214000D10582FB992790F921E0922790FB82F933
:1021500090FB83F9C7CF8091D205982F909591700D
:102160008E7F892B90FB81F991CF0E944E17909121
:10217000D105892F97FB87F98058B4CF81E0ACCF88
:1021800081E021CFCF93DF93EB0186319C4511F5A0
:102190000E94EC1C9A81992399F08A7A91E009F4C3
:1021A00090E09093F101811109C089E20E94A61C80
:1021B0000E943F1D80E0DF91CF91089585E3F6CF27
:1021C0008091F101811104C089E20E94AD1CF0CF21
:1021D00085E3FBCF81E0EFCF08950895089508953A
:1021E0000F931F93CF93DF93EC018B010E94EC10B0
:1021F0000E944E170E942C1B19830883DF91CF91F8
:102200001F910F9108958F929F92AF92BF92CF929C
:10221000DF92EF92FF921F93CF93DF93EC017B014C
:10222000142F8090800590908105A0908205B09039
:1022300083050E944E170E942C1B86E01802600145
:102240001124CE15DF05C1F40E944E17809280053F
:1022500090928105A0928205B0928305812FDF9133
:10226000CF911F91FF90EF90DF90CF90BF90AF90F4
:102270009F908F900C94ED10CE010E940217CC0D10
:10228000DD1DDFCF0F931F93CF93DF93EB01F80199
:10229000A881B9813281311103C08A179B07A9F047
:1022A00086E02802B0011124CD01861B970B481748
:1022B000590781F086E001900D928A95E1F78881B7
:1022C0009981860F971F99838883DF91CF911F9102
:1022D0000F910895BF01822FDF91CF911F910F9130
:1022E0000C94EE10CF92DF92EF92FF921F93CF9358
:1022F000DF936C01EB01142F7901842F0E94EF1002
:102300008AEF1802A0011124CC15DD0531F0FE0181
:10231000E40FF51F828181110BC0F701D183C083C7
:10232000DF91CF911F91FF90EF90DF90CF900895B4
:10233000EF01EACF0F931F93CF938B012091F40409
:1023400021113DC0FB01C281C11122C08530FDE5D4
:102350009F0719F128F484309D4589F0C1E018C029
:102360008730EDE59E0709F188309D45B9F760910A
:102370000601709107014FEF8CEE94E01DC062EFF3
:1023800071E082EF94E00E94F01081E08093F40409
:102390008C2FCF911F910F9108956CEE74E082EF16
:1023A00094E00E94F01082E0F1CF609108017091FA
:1023B000090141E082EF91E00E940311E9CFAC01F5
:1023C00044505D454330510538F531E086309D4538
:1023D00009F430E0F8018281831731F0213031F0C7
:1023E000223081F01092F404C0E0D2CF6091F20468
:1023F0007091F30428E031E041E082EF91E00E9427
:102400007211F0CF6091F2047091F30426E031E094
:102410004FEF8CEE94E0F3CF213069F0223009F0D9
:102420009DCF40910801509109012FEF62EF74E0B8
:102430008CEE94E009C0409106015091070121E023
:1024400062EF74E082EF91E00E94421187CF909397
:10245000FA048093F9040895E091F904F091FA04E4
:10246000309721F00190F081E02D099480E00895EB
:10247000E091F904F091FA04309711F480E00895A6
:102480000190F081E02D09950895E091F904F09113
:10249000FA04309799F020911601222359F02091E7
:1024A000D10527FF07C0DC012C9111962C931197C1
:1024B00025E02C930280F381E02D09940895E091AA
:1024C000F904F091FA04309739F022E0DC012C9302
:1024D0000480F581E02D099408952091F70430914E
:1024E000F8042817390771F09093F8048093F704E3
:1024F000E091F904F091FA04309721F00680F78119
:10250000E02D099408952091F5043091F6042817E0
:10251000390771F09093F6048093F504E091F90483
:10252000F091FA04309721F00084F185E02D0994B0
:1025300008950E94AC1F60930C0570930D05809365
:102540000E0590930F05609308057093090580931D
:102550000A0590930B05089585B7806885BF85B7F8
:10256000806885BF0895089508950C94B312089566
:102570000C94B7120E94AC128CEA9DE10E94FC1FE1
:102580000E94B4120C94B51281E008950C94C41208
:10259000089508950E94C8120C94C9120E94971FB2
:1025A0000E94C402E1EDF5E0808180688083809123
:1025B000D1059091D2050E94D91D0C94B8128F922A
:1025C0009F92AF92BF92CF92DF92EF92FF920F93C2
:1025D0001F93CF93DF93CDB7DEB72A970FB6F8944A
:1025E000DEBF0FBECDBF0E94330381110E9499123E
:1025F0005CEF852E54E0952E10E000E0A02E802F99
:102600000E94E2036C01F401E190F1904F01E816A1
:10261000F90609F45CC08091AD0581FD0E94EB03D1
:10262000C7018C259D25B12CEE24E394F12C9C014F
:102630002E213F21232B09F444C00E94C612882377
:10264000A9F0BE82AF82CE20DF2081E0CD2809F440
:1026500080E088870E94A01F8160782F9A878987F1
:102660004E815F8168858A850E949113000F111F3A
:10267000F801E450FB4F80819181E826F926F18230
:10268000E0820E94090D0E942C129091FB04891790
:10269000A9F10E942C128093FB042A960FB6F8949D
:1026A000DEBF0FBECDBFDF91CF911F910F91FF9085
:1026B000EF90DF90CF90BF90AF909F908F900C9451
:1026C0000608B394EE0CFF1CFEE0BF12B0CF0F5F04
:1026D0001F4F0630110509F091CF8FEF89838A8350
:1026E0001B820E94A01F8160782F9D838C8349816B
:1026F0005A816B818D810E949113C3CF2A960FB6A8
:10270000F894DEBF0FBECDBFDF91CF911F910F9127
:10271000FF90EF90DF90CF90BF90AF909F908F9001
:102720000895DF92EF92FF920F931F93CF93DF9361
:10273000CDB7DEB72B970FB6F894DEBF0FBECDBF77
:102740007A878B87F42E052F162FE72ED82E61114E
:102750000E940F1D1E821D827E2DEC82DD824F2D78
:10276000502F612F8D2D9E812B960FB6F894DEBFD2
:102770000FBECDBFDF91CF911F910F91FF90EF90D2
:10278000DF900C94C419FC01808191810C94781C19
:10279000CF93C82F882309F48BC08238C1F40E94DC
:1027A0002C1281FD85C089E30E94A61C0E943F1D5A
:1027B0002FEF81EE94E0215080409040E1F700C07F
:1027C000000089E30E94AD1CCF910C943F1D83381B
:1027D000A1F40E942C1280FD6BC083E50E94A61C10
:1027E0000E943F1D2FEF81EE94E0215080409040E9
:1027F000E1F700C0000083E5E5CF8438A1F40E9432
:102800002C1282FD55C087E40E94A61C0E943F1D29
:102810002FEF81EE94E0215080409040E1F700C01E
:10282000000087E4CFCF8CEF8C0F813A90F46C2FAF
:1028300080910A0190910B010E94781E882329F053
:102840008C2F0E94AD1C0E943F1D8C2F0E94A61C45
:10285000BBCF80E28C0F883048F4C77081E001C0A4
:10286000880FCA95EAF70E94EF1CAECFEBE5EC0F9C
:10287000E33040F4F0E0EA58FE4F808190E0CF91E1
:102880000C946D12E8E5EC0FE73150F4F0E0EE0F38
:10289000FF1FE85BFE4F80819181CF910C948312E2
:1028A000CD3E30F08C2F0E941B0CCF910C94EE0C7F
:1028B000CF910895882309F452C0823871F40E94A0
:1028C0002C1281FF4CC089E30E94A61C0E943F1D70
:1028D00089E30E94AD1C0C943F1D833859F40E947B
:1028E0002C1280FF3CC083E50E94A61C0E943F1D65
:1028F00083E5EFCF843859F40E942C1282FF2FC059
:1029000087E40E94A61C0E943F1D87E4E2CF9CEF53
:10291000980F913AF0F290E2980F983050F4877047
:1029200091E001C0990F8A95EAF7892F0E94F51C62
:10293000D2CF9BE5980F933020F490E080E00C9488
:102940006D1298E5980F973120F490E080E00C9498
:1029500083128D3E20F00E94750C0C94EE0C0895AD
:102960001F93CF93DF93182FEB010E94C81320977A
:1029700031F4812FDF91CF911F910C945A148FE97C
:102980009FE00197F1F700C000002197F0CF70E0C1
:1029900060E0893311F460E570E00C94B014882392
:1029A00021F00E94EF1C0C943F1D0895882321F014
:1029B0000E94F51C0C943F1D0895BF92CF92DF92A8
:1029C000EF92FF920F931F93CF93DF937C01D62F4B
:1029D000C72FFC011281058102950F700E94C41C53
:1029E000D82E8823A1F0D12E112389F08C2F807F3F
:1029F000803429F080E28D0FD12C883040F082E0C5
:102A00000E94901D0E94C41C91E0D82ED926CC2E85
:102A1000C2949FE0C922EC2DF0E0EF5CF84D0C94DD
:102A2000D3260C2F0F70C07F11F00295007F112369
:102A3000A9F0002359F080E28D0F883010F0D111F9
:102A400009C0802F0E94EF1C0E943F1D8D2F0E9405
:102A5000C81314C0802F0E94021DF6CF8D2F0E9434
:102A60005A14002359F080E28D0F883010F0D111F4
:102A70002CC0802F0E94F51C0E943F1D2C2D285039
:102A8000330B2430310520F40E942C120E940608DA
:102A9000DD2009F496C10E94C01C80FD92C1F7019F
:102AA00012820E94BA1C0E94461BC7010E94021794
:102AB0000E94BA1CDF91CF911F910F91FF90EF9070
:102AC000DF90CF90BF900C94671B802F0E94081D51
:102AD000D3CFFC2FFF70BF2EC07FC03219F0B2944D
:102AE00080EFB822DD2339F0D13019F1112359F1EB
:102AF000002321F1ABCF112381F0011106C00E9408
:102B0000221D8B290E94CF14B9CF0130C1F70E943A
:102B1000221D8B290E94281DB1CF011106C00E94E1
:102B2000351D8B2D0E94D614A9CF013009F4A6CFF4
:102B3000F6CF112329F0023008F0A0CF8B2DE2CF81
:102B400001119CCFEECF002361F3D93349F42FEF6D
:102B500037EE83E0215030408040E1F700C00000B4
:102B60008D2F0E945A148ACF8C2F8695869583705C
:102B700069F0813009F082CF8D2F9C2F9370111155
:102B800002C090E080E00E94831278CF8D2F9C2FAE
:102B90009370111102C090E080E00E946D126ECF20
:102BA0008D2F112329F00E941B0C0E94EE0C66CF82
:102BB0000E94750CFACF8C2F837009F041C011115F
:102BC0005DCF4D2F429546954770440F440F0D2F12
:102BD0000F7010E030E020E0042E04C0000F111F41
:102BE000221F331F0A94D2F760E070E0CB01D4FFBC
:102BF0000FC06FE070E080E090E004C0660F771FC8
:102C0000881F991F4A95D2F7609570958095909589
:102C1000C695C695C370602B712B822B932BC23047
:102C200049F058F4C13019F00E94FA1A27CF0E94D7
:102C3000E81A24CF0E940C1B21CF0E94E61A1ECF57
:102C40008695112311F08C2F8170882309F416CFFB
:102C50004D2F429546954770440F440F0D2F0F702E
:102C600010E030E020E0042E04C0000F111F221FEE
:102C7000331F0A94D2F760E070E0CB01D4FF0FC09D
:102C80006FE070E080E090E004C0660F771F881F5F
:102C9000991F4A95D2F76095709580959095C69545
:102CA000C695C370602B712B822B932BC23049F0D9
:102CB00058F4C13019F00E94BD1BE0CE0E94AB1B3E
:102CC000DDCE0E94CF1BDACE0E94201BD7CECF7064
:102CD000112329F08C2F0E94461B8D2F13CF8D2F8F
:102CE0000E94D6148C2F0E94671BC8CED23F81F160
:102CF00060F4D03FC9F0D13F21F1112309F441C064
:102D00000111A4CE8C2F8F7120C0D33F31F1D43F5D
:102D1000A1F7112361F1CF718C2F0E94461B63E054
:102D20008C2F0E94751DAACE112339F00111A6CE59
:102D30008C2F8F710E948A1BA1CE023008F09ECE8C
:102D4000F7CF8C2F8F71112371F20E94461B96CE04
:102D50008C2F8F711123C9F3C6CF112329F08C2F2B
:102D60008F710E94311B8ACE0E942C1B87CE81E07E
:102D70000E94901D023008F481CE82E00E94901DD6
:102D80007DCE002359F0D93309F0EACE9FEFE7EE6C
:102D9000F3E09150E040F040E1F7E0CE8C2F8F71EE
:102DA000A2CF4C2F4F706D2FC7010E940E080E94BA
:102DB0005E1A64CE4C2F4F706D2FC7010E94110810
:102DC0005DCEDF91CF911F910F91FF90EF90DF903B
:102DD000CF90BF9008950F931F93CF93DF93EC0193
:102DE000688179818A810E94821C8C010E94E11B8A
:102DF0000E94E51AB801CE01DF91CF911F910F918A
:102E00000C94DD14CF93DF93EC018B819C81892B93
:102E100029F08881998189238F3F59F4DF91CF91DF
:102E20000895CE010E94EB16CE01DF91CF910C9454
:102E30004006CE010E9476068111F3CF0E94C41C89
:102E4000882361F38A81882349F382E0DF91CF915F
:102E50000C94901D882321F00E94021D0C943F1DAC
:102E60000895882321F00E94081D0C943F1D0895A9
:102E700090E080E00E946D1290E080E00E9483125A
:102E80000E940F1D0E941F1D0E943F1D0E94150ED3
:102E90000C94EE0C0E94B41C0C9438170E94FF1C7A
:102EA0000C944A17E92FE295EF70E250EE3070F47F
:102EB000F0E0EF5BF84D0C94D326803F19F020F43E
:102EC000883E20F481E00895843FE1F380E0089596
:102ED000883EC0F3813FD1F7F5CF93FB882780F977
:102EE00008950E94781C0C945217CF93DF9300D062
:102EF00000D00F92CDB7DEB70F900F900F900F90CC
:102F00000F90DF91CF910895CF93DF9300D000D041
:102F100000D0CDB7DEB726960FB6F894DEBF0FBE51
:102F2000CDBFDF91CF9108951F93CF93DF93C091D1
:102F3000110516E0809112058C1304C0DF91CF912A
:102F40001F910895D0E01C9FF0011D9FF00D1124EA
:102F5000ED5EFA4F40815181628173818481958158
:102F60000E9484172196C770E5CF40914305509188
:102F70004405609145057091460580914705909103
:102F800048050C9484171F93CF93DF9380914805D5
:102F9000807FA9F480914505882389F080911105EF
:102FA000C09112056091430570914405A0914605BA
:102FB000B0914705D62FD72316E0C81304C0DF9180
:102FC000CF911F91089590E0109711F0DF3F19F411
:102FD00001968770F2CF189F9001199F300D112430
:102FE000F901ED5EFA4F41814713F2CF408146135C
:102FF000EFCF42814111ECCF438154814A1B5B0BDF
:10300000483C510528F7809148058F708061809376
:103010004805F901E85EFA4F80818F7080618083F6
:1030200083E495E00E940217DF91CF911F910C94E9
:103030009417AF92BF92CF92DF92EF92FF920F93CD
:103040001F93CF93DF93CDB7DEB761970FB6F89498
:10305000DEBF0FBECDBF8C0185E0F801DE011D96FD
:1030600001900D928A95E1F7F80140815181E2804B
:1030700083E4C82E85E0D82E6091460570914705FF
:103080006115710509F461C19091430520914405D2
:10309000892F82238F3F09F458C1A380B480F09018
:1030A0004505F501E61BF70BFF2009F4FCC08091F4
:1030B0004805382F307FE83CF10508F0B2C03111E7
:1030C00079C0FE2C251323C0941321C0E1101FC02A
:1030D0008F708061809348050E94B517C6010E94D9
:1030E000021780914805F80185838F2D61960FB6F0
:1030F000F894DEBF0FBECDBFDF91CF911F910F912E
:10310000FF90EF90DF90CF90BF90AF900895AB28E5
:1031100029F0842F85238F3F09F033C180E0F82FF9
:10312000F170DF2E80FF3CC08091110520911205C7
:1031300036E0821315C04D875E878D859E850E947F
:10314000781C292F22952F702230F0F0243018F5AA
:103150009F70F1F0F8019581907FD1F4D12C1EC0C1
:1031600090E0389FF001399FF00D1124ED5EFA4F89
:103170006181651306C06081641303C062816E11B2
:103180000FC001968770D5CF9F7011F0882331F35F
:10319000805E883018F3C8010E940217FD2CA5CF6D
:1031A000EE2009F4A2CF8091480581608093480504
:1031B000F12C9BCF251306C0941304C0F801EE2018
:1031C00009F48DC04D875E878D859E850E9471179D
:1031D000882319F1EE2009F180914805803270F0C2
:1031E000209143053091440538872F831986BB868B
:1031F000AA868C87CE0107960E94021786E0F80106
:10320000A3E4B5E001900D928A95E1F70E94C317FF
:103210000E94B517FF24F39468CFC8010E940217DB
:10322000F9CF311113C07A2DB98AA88A6E2D8989F8
:103230000E94751783E495E00E94021786E0F6016C
:1032400011928A95E9F70E94B517B2CF25130FC0E6
:1032500094130DC0E1100BC0F8018583C8010E94D2
:10326000021786E0F60111928A95E9F73ECF4D8765
:103270005E878D859E850E947117882371F2EE20EE
:1032800061F280914805803208F4B8CF209143055F
:10329000309144053A8329831B82BD82AC828E83A0
:1032A000CE010196A9CFE83CF10508F041C0FE2C03
:1032B000EE2009F4B2CF25132AC0941328C08091C0
:1032C000480580FD1BC0982F907FC1F0F8018583D1
:1032D000903F31F0982F907F905F8F70892B85837E
:1032E000C8010E94021786E0F801A3E4B5E001904E
:1032F0000D928A95E1F70E94B517F7CE86E0F801A6
:10330000A3E4B5E001900D928A95E1F7EECE4D87EA
:103310005E878D859E850E94711781116FCF809188
:103320004805816080934805C8010E940217DDCEE0
:103330007A2DB98AA88A6E2D89890E94751786E030
:10334000F60111928A95E9F7D6CFEE2009F465CF00
:103350004D875E878D859E850E947117F82E882384
:1033600009F45BCF86E0F801A3E4B5E001900D928B
:103370008A95E1F783E495E00E94C3130E94C31786
:10338000BACF81E08E25CBCE1F93CF93DF93CDB7FD
:10339000DEB72C970FB6F894DEBF0FBECDBF4F83BC
:1033A000588769877A878B879C87CE0107960E940A
:1033B0001918882369F08A859B85892B39F04F81FC
:1033C0005885842F85238F3F09F071C016E05FC0B8
:1033D00086E0FE013796DE01119601900D928A95E6
:1033E000E1F78A859B85892B89F38F8198858923CD
:1033F0008F3F61F32091120530E0C901019687707B
:103400009927409111054817190671F40E944E172B
:10341000109212051092110586E0E3E4F5E0DF0159
:103420001D928A95E9F7D2CF96E0929FD001939FA3
:10343000B00D1124AD5EBA4FFE01319601900D9290
:103440009A95E1F7809312050E949417BFCF819F50
:10345000C00111248D5E9A4F0E9419188823E9F04B
:10346000E09111051E9FF0011124ED5EFA4F40819D
:10347000518162817381848195810E94841780913A
:10348000110590E00196877099278093110580912E
:103490001105909112058913DACF2C960FB6F89486
:1034A000DEBF0FBECDBFDF91CF911F91089569851B
:1034B0007A858B859C850E94841788CFEF92FF9236
:1034C0000F931F93CF93DF938C01892B81F0F12C05
:1034D000EE24E394E8012196F8018491843770F496
:1034E000843008F05FC08130B1F08230A1F1DF910B
:1034F000CF911F910F91FF90EF900895853709F4B8
:103500004CC008F43DC09CE7980F903780F78F7748
:103510000E945A1449C00E5F1F4FFE01849190E231
:10352000980F983060F48770FE2D01C0FF0F8A95C8
:10353000EAF78F2F0E94121D0E943F1D02C00E94B9
:10354000C8138F2D815030F2EFE9FFE03197F1F78A
:1035500000C00000F7CF0E5F1F4FFE01849190E284
:10356000980F983050F48770FE2D01C0FF0F8A9598
:10357000EAF78F2F0E94181DDFCF0E945A14E1CF67
:103580000E5F1F4FFE01C491C150D8F28FE99FE03A
:103590000197F1F700C00000F7CF0E5F1F4FFE014B
:1035A000F490CFCF0E94C8138E01CBCF08950C9416
:1035B000D61A0E94D71A609384057093850580936C
:1035C0008605909387050C94381708950C94D91AA2
:1035D0000F931F9300918405109185052091860516
:1035E00030918705602B712B822B932B1F910F91AC
:1035F0000C94D91A0F931F9300918405109185059F
:1036000020918605309187056023712382239323BF
:103610001F910F910C94D91A0F931F930091840559
:1036200010918505209186053091870560277127C7
:10363000822793271F910F910C94D91A0C9470052F
:103640000E941E1B60938005709381058093820504
:10365000909383050C94381760E070E0CB010C94D4
:10366000201B0F931F9341E050E060E070E08A015F
:103670009B0104C0000F111F221F331F8A95D2F730
:10368000C901B8011F910F910C94201B0F931F9338
:1036900041E050E060E070E004C0440F551F661F39
:1036A000771F8A95D2F78091800590918105A0912E
:1036B0008205B09183058A019B01082B192B2A2BC7
:1036C0003B2BC901B8011F910F910C94201B0F9344
:1036D0001F9341E050E060E070E004C0440F551FCC
:1036E000661F771F8A95D2F7CB01BA016095709556
:1036F000809590950091800510918105209182051B
:103700003091830560237123822393231F910F91AE
:103710000C94201B0F931F9341E050E060E070E099
:1037200004C0440F551F661F771F8A95D2F78091FA
:10373000800590918105A0918205B09183058A0151
:103740009B01082719272A273B27C901B8011F9188
:103750000F910C94201B0F931F93009180051091E3
:1037600081052091820530918305602B712B822B7E
:10377000932B1F910F910C94201B0F931F9300917B
:103780008005109181052091820530918305602389
:103790007123822393231F910F910C94201B0F936D
:1037A0001F93009180051091810520918205309131
:1037B000830560277127822793271F910F910C940F
:1037C000201B08952EE0929F800D1124982F977052
:1037D00041E001C0440F9A95EAF786958695869553
:1037E00095E0899FF0011124E75BFA4F90E080E0BB
:1037F00070E05191DF0111979B01082E02C03695B0
:1038000027950A94E2F7217021952527242325275F
:103810002C9301968530910561F708952EE0929FD3
:10382000800D1124982F977086958695869525E0B2
:10383000829FF0011124E75BFA4F50E040E080E006
:10384000219130E0092E02C0369527950A94E2F7BF
:1038500021703327042E01C0220F0A94EAF7822B2D
:103860004F5F5F4F4530510559F70895BF92CF9292
:10387000DF92EF92FF920F931F93CF93DF938C0110
:10388000C0908005D0908105E0908205F09083057E
:103890008091840590918505A0918605B09187055A
:1038A000C82AD92AEA2AFB2ACFE1D0E0BC2ED701C8
:1038B000C6010C2E04C0B695A795979587950A94D6
:1038C000D2F780FD0EC0219788F7B12C8B2DDF91A8
:1038D000CF911F910F91FF90EF90DF90CF90BF900D
:1038E0000895B8018C2F0E942E08019761F3EECF46
:1038F000CF93DF93EC010E94361CBE01DF91CF9184
:103900000C942E081F93CF93DF93EB019091100539
:10391000992331F0CB01DF91CF911F910C94781C4A
:10392000882379F0CB010E94361C182F682FCE0116
:103930000E94E21BBE01812FDF91CF911F910C9459
:103940002E08CB010E940E1C182FF4CF682F8091F7
:103950000A0190910B010C94F81E682F80910A01C6
:1039600090910B010C94031F80910A0190910B011F
:103970000C940E1F809188058595859585950895F1
:10398000809188058770089590918805977081E0EF
:1039900009F480E008959091D20592FB222720F946
:1039A000281751F080FB92F99093D2058091D105B0
:1039B0009091D2050C94D91D08958091D20582FB77
:1039C000882780F991E089270C94CB1C81E00C9426
:1039D000CB1C80E00C94CB1C8091AC050895909199
:1039E000AC05892B8093AC05089580959091AC052A
:1039F00098239093AC0508958093AC050895109298
:103A0000AC0508959091AB05892B8093AB05089583
:103A100080959091AB0598239093AB0508951092F3
:103A2000AB0508959091AA05892B8093AA05089566
:103A300080959091AA0598239093AA0508951092D5
:103A4000AA05089580918905089508950C94251D6F
:103A50009091D20592FD08C090918905981721F0A8
:103A6000809389050C94261D0895809189058823EB
:103A700029F01092890580E00C94261D0895E091AC
:103A80000A01F0910B018091AC058083E0910A015D
:103A9000F0910B0180819091AB05892B8083E0919F
:103AA0000A01F0910B0180819091AA05892B8083F6
:103AB00090918905992381F0E0910A01F0910B0121
:103AC0008081892B808380910A0190910B010E9453
:103AD000641E81110E94351D80910A0190910B0195
:103AE0000C94451208950C94721D9091D20592FD8C
:103AF00010C098E0899F90011124622B6093880583
:103B00000E94461B809188058595859585950C9426
:103B1000731D0C94461B1092880580E00C94731D55
:103B2000909188058095892380938805282F277098
:103B300039F4282F082E000C330B9217130621F4AA
:103B40009091D20592FF07C08595859585950E9435
:103B5000671B0C948B1D089580E0089590E080E031
:103B60000E94F52621E08A3E9E4F09F020E0822F38
:103B7000089582E090E00C94ED26682F82E090E0BA
:103B80000C94FB2683E090E00C94ED26682F83E0F4
:103B900090E00C94FB26CF9384E090E00E94ED2609
:103BA000C82F82E290E00E94ED26982F8C2FCF91B3
:103BB0000895CF93C92F682F84E090E00E94FB26E0
:103BC0006C2F82E290E0CF910C94FB26AB01BC01FC
:103BD0008FE090E00C940D27AB01BC0183E190E0F5
:103BE0000C940D2760E070E0CB010C94EC1D60E0BC
:103BF00070E0CB010E94E61D0C94F21D6AEE7EEF90
:103C000090E080E00E94192760E082E090E00E944E
:103C1000FB2660E083E090E00E94FB261092840582
:103C200010928505109286051092870560E084E069
:103C300090E00E94FB2660E082E290E00E94FB267A
:103C400060E085E090E00E94FB2660E086E090E086
:103C50000E94FB266FEF87E090E00E94FB2640E089
:103C600050E0BA0188E090E00E940D2760E08DE00E
:103C700090E00E94FB2640E050E0BA0188E190E02D
:103C80000E940D2760E087E190E00E94FB2640E063
:103C900050E0BA018CE190E00E940D2770E060E0F6
:103CA00080E290E00E94192740E050E0BA0188E1EC
:103CB00090E00E940D270C94F71D0C94FE1D682FB8
:103CC0008EE090E00C94FB26FC0132968091160168
:103CD000882321F08091D1059EE187FF96E080E066
:103CE000915008F4089521912223D1F38F5FF8CFEA
:103CF000662301F1209116012223F1F02091D105D4
:103D000027FF1AC0462F4695469546954E3190F4AA
:103D1000677021E030E002C0220F331F6A95E2F79E
:103D2000840F911DFC01828190E02823392381E0DA
:103D3000232B69F480E00895FC01329608962191C6
:103D4000261721F0E817F907D1F7F4CF81E008959D
:103D50009C01FC0132969FEF80E04191461751F0A3
:103D60009F3F19F4411101C0982F8F5F8630A9F74A
:103D70009F3F09F40895290F311D97FD3A95F901E8
:103D800062830895FC01329608962191261303C0A0
:103D9000DF0111971C92E817F907B9F70895E62F8C
:103DA000E695E695E695EE3168F4E80FF92FF11DFA
:103DB000677021E030E001C0220F6A95EAF7828146
:103DC000822B82830895E62FE695E695E695EE31FF
:103DD00070F4E80FF92FF11D677021E030E001C0A9
:103DE000220F6A95EAF7209582812823228308957D
:103DF00020911601222329F02091D10527FD0C9452
:103E0000CF1E0C94A81E20911601222329F0209188
:103E1000D10527FD0C94E31E0C94C21EFC013296C2
:103E200080911601882351F08091D10587FF06C04B
:103E30008EE1DF011D928A95E9F7089586E0F9CFBA
:103E40000C948E058091E105843049F10E94201F79
:103E500080E00E9406081092AE0588E190E020E420
:103E60000FB6F894A895809360000FBE2093600071
:103E700083B7817F846083BF83B7816083BF789479
:103E8000889583B78E7F83BF0FB6F894A8958091ED
:103E90006000886180936000109260000FBE0895FA
:103EA0000895CF930E94DA020E9433030E94501FAC
:103EB000C0E08C2F0E94E203892B31F4CF5FC63023
:103EC000C1F780E0CF91089581E0FCCF0C9490057C
:103ED0000E944E170E942C120E9406080C94661F26
:103EE0001F921FB61F9211248F939F93AF93BF937E
:103EF0008091AE05811113C08091D9059091DA05AA
:103F0000A091DB05B091DC054196A11DB11D809308
:103F1000D9059093DA05A093DB05B093DC05BF913A
:103F2000AF919F918F911F901FBE1F90189582E0B7
:103F300084BD93E095BD9AEF97BD80936E00089580
:103F40002FB7F8948091D9059091DA05A091DB05FF
:103F5000B091DC052FBF08952FB7F8946091D90573
:103F60007091DA058091DB059091DC052FBF0895F3
:103F70009C014FB7F8948091D9059091DA05A091F2
:103F8000DB05B091DC054FBF821B930B089578943D
:103F90001F921FB61F9211248F939F93AF93BF93CD
:103FA0008091D9059091DA05A091DB05B091DC05EF
:103FB0000196A11DB11D8093D9059093DA05A093B8
:103FC000DB05B093DC05BF91AF919F918F911F905E
:103FD0001FBE1F90189587E797E79093010880937D
:103FE000000888E19AE00FB6F894A89580936000E5
:103FF0000FBE90936000FFCF90937B0180937A0176
:1040000008958091CF050895CF93DF9300D00F924C
:10401000CDB7DEB79091E105943019F589837B83A4
:104020006A8382E08093E9008FEF9091E8008150ED
:1040300095FD06C095ED9A95F1F700008111F5CF39
:104040008091E80085FF0DC050E040E063E070E043
:10405000CE0101960E942E228091E8008E778093F7
:10406000E8000F900F900F90DF91CF910895BC0161
:1040700084E00C940420BC0183E00C9404209C0197
:1040800082E08093E9009FEF8091E800915085FDE8
:1040900006C085ED8A95F1F700009111F5CF80916A
:1040A000E80085FF0CC050E040E066E070E0C90128
:1040B0000E942E228091E8008E778093E800089578
:1040C000CF93DF93EC01809116018823B1F18091A9
:1040D000D10587FF32C060E282E08093E9008FEF74
:1040E0009091E800815095FD06C095ED9A95F1F705
:1040F00000008111F5CF8091E80085FF1BC0809101
:10410000160170E050E040E0811104C050E040E052
:1041100068E070E0CE010E942E228091E8008E7748
:104120008093E80080E2FE01AFEAB5E001900D92D5
:104130008A95E1F7DF91CF91089568E081E0CDCFD6
:104140008091E005811109C00E94BE230E941B24BA
:104150008091E20084608093E20008951092E0056F
:10416000089508950895089542E061EC81E00E9469
:104170003A2342E261EC82E00C943A238091E30519
:10418000833009F45FC030F48130C1F1823009F42A
:104190009BC008958A3009F487C08B3009F46DC044
:1041A000893009F04EC08091E205813209F049C0A2
:1041B0008091E6059091E705029708F042C0809152
:1041C000E800877F8093E8008091E80082FF35C097
:1041D0009091F3008091F200029729F48091F10010
:1041E0008B7F813021F48091F1008093CF05809105
:1041F000E8008B778093E8000C946E238091E205B1
:10420000813AF9F48091E800877F8093E8008091FB
:10421000E6059091E705892B61F460E28FEA95E06D
:1042200070E00E947D228091E8008B778093E80007
:10423000089560E090E080E0F3CF8091E105811186
:10424000C3CF08958091E205813AD9F78091E605C0
:104250009091E705892BA9F78091E800877F8093EB
:10426000E8008091E80080FFFCCF809116018093E8
:10427000F1008091E8008E77BDCF8091E205813218
:1042800001F78091E6059091E705892BD1F68091A1
:10429000E800877F8093E8000E946E238091E40508
:1042A000809316010C944E178091E205813249F6F5
:1042B0008091E800877F8093E8000E946E238091C0
:1042C000E5058093D00508958091E205813A09F0D3
:1042D000B8CF8091E800877F8093E8008091E80064
:1042E00080FFFCCF8091D005C2CF84B7877F84BF89
:1042F0000FB6F894A8958091600088618093600063
:10430000109260000FBE80E890E00FB6F8948093A2
:104310006100909361000FBE0E94BA120E94BE23FA
:104320000E941B248091E20084608093E2007894D4
:104330000E94A4260E94CE128CE091E00E942712D7
:104340008091E105853099F00E94DF120E94CA1227
:10435000F7CF0E94221F8091DF05882341F00E9441
:10436000511F882321F00E9418220E944E1780912D
:10437000E105853071F30E94681FE6CF0C94C021DF
:10438000292F33272330310519F168F42130310505
:1043900009F444C02230310509F445C090E080E0C2
:1043A00030E020E025C02132310549F122323105CB
:1043B000A9F780E490E02CED33E061157105C1F0C0
:1043C00086EB90E026E233E06130710589F0E6CFBC
:1043D00099278130910581F0009729F00297F1F635
:1043E000EDEAF2E002C0E5EDF2E0849190E09F0199
:1043F000FA01318320830895E1ECF2E0F6CF89E001
:1044000090E02BEE32E06115710591F389E090E0C8
:1044100024E033E06130710559F3C0CF82E190E0D0
:1044200024E133E0E5CF8BE390E029ED32E0E0CF0B
:1044300080E189BD82E189BD09B400FEFDCF809194
:10444000D8008F7D8093D8008091E00082608093B7
:10445000E0008091E00081FDFCCF0895AF92BF9213
:10446000CF92DF92FF920F931F93CF93DF936C0154
:10447000EB018A010E948D23F82E811123C00115C2
:10448000110539F0F80180819181C81BD90BC80E44
:10449000D91EB12CA12C2097A9F08091E80085FDB0
:1044A00022C08091E8008E778093E8000115110505
:1044B000A1F0F80180819181A80EB91EB182A0827D
:1044C00085E0F82E8F2DDF91CF911F910F91FF90F6
:1044D000DF90CF90BF90AF9008950E948D238823E6
:1044E000D1F2F82EEFCFF60181916F018093F100A8
:1044F0002197FFEFAF1ABF0ACECFFC018091E805EC
:104500009091E90586179707A0F06115710529F4C8
:104510009091E8009E779093E80090E06115710516
:1045200051F4911108C08091E80082FF34C080E00E
:104530000895BC01F2CF8091E1058823C1F1853057
:10454000C1F18091E80083FD30C08091E80082FDD8
:10455000EACF8091E80080FFE1CF8091F3002091C5
:10456000F200382F6115710519F02830310558F027
:1045700091E02830310509F090E02091E8002E7795
:104580002093E800CBCF81918093F10061507109B5
:104590002F5F3F4FE7CF8091E105882341F08530C1
:1045A00041F08091E80083FFBECF81E0089582E072
:1045B000089583E00895FC018091E8059091E90554
:1045C00086179707A0F06115710529F48091E8001E
:1045D0008E778093E80090E06115710551F4911198
:1045E00008C08091E80082FF35C080E00895BC01DA
:1045F000F2CF8091E1058823C9F18530C9F180911E
:10460000E80083FD31C08091E80082FDEACF80910F
:10461000E80080FFE1CF8091F3002091F200382F75
:104620006115710519F02830310558F091E02830F6
:10463000310509F090E08091E8008E778093E800E2
:10464000CBCF84918093F1003196615071092F5F37
:104650003F4FE6CF8091E105882341F0853041F05E
:104660008091E80083FFBDCF81E0089582E0089546
:1046700083E00895982F973028F08F708093E90099
:1046800081E008959093E900242F762F50E0981749
:1046900031F07091EC002091ED005091F00021FD7F
:1046A00002C09F5FE8CF3091EB003E7F3093EB007C
:1046B0003091ED003D7F3093ED003091EB003160A3
:1046C0003093EB007093EC002093ED005093F000DA
:1046D0002091EE0027FDE5CF80E008958091E2056E
:1046E00087FF13C08091E80082FF06C08091E80038
:1046F0008B778093E80004C08091E1058111F2CFAF
:1047000008958091E1058823D9F38091E80080FF26
:10471000F8CF8091E8008E77ECCF2091E4003091C3
:10472000E50095E6A9012091EC00822F817020FF21
:1047300006C08091E80080FF06C080E008952091C7
:10474000E80022FD1AC08091E105882389F08530B8
:1047500089F08091EB0085FD0FC02091E40030913D
:10476000E50042175307F9F29150E1F684E008950D
:1047700082E0089583E0089581E008950E942C244A
:104780000E943424E0EEF0E0808181608083E8EDD7
:10479000F0E080818F77808319BCA7EDB0E08C9129
:1047A0008E7F8C9380818F7E80831092E0050895A8
:1047B0000F931F93CF93DF930E942C240E943424E5
:1047C000C8EDD0E088818F7788838881806888836E
:1047D00088818F7D888319BC1092E1051092DD05D8
:1047E0001092DF051092DE0500EE10E0F8018081E6
:1047F0008B7F808388818160888342E060E080E0F5
:104800000E943A23E1EEF0E080818E7F8083E2EE29
:10481000F0E0808181608083808188608083F801FE
:1048200080818E7F8083888180618883DF91CF91B2
:104830001F910F910895E8EDF0E080818F7E8083D5
:10484000E7EDF0E080818160808384E082BF81E0D9
:104850008093E0050C94D823E8EDF0E080818E7F12
:1048600080831092E20008951092DA001092E10025
:1048700008951F920F920FB60F9211242F933F931A
:104880004F935F936F937F938F939F93AF93BF9358
:10489000EF93FF938091E10082FF0BC08091E200D3
:1048A00082FF07C08091E1008B7F8093E1000E942E
:1048B000A3268091DA0080FF19C08091D80080FF84
:1048C00015C08091DA008E7F8093DA008091D90044
:1048D00080FF96C080E189BD82E189BD09B400FEF8
:1048E000FDCF81E08093E1050E94A0208091E1004E
:1048F00080FF19C08091E20080FF15C08091E20026
:104900008E7F8093E2008091E20080618093E200DC
:104910008091D80080628093D80019BC85E0809394
:10492000E1050E94B2208091E10084FF2BC08091BC
:10493000E20084FF27C080E189BD82E189BD89B59D
:10494000982F917080FFFBCF8091D8008F7D80934E
:10495000D8008091E1008F7E8093E1008091E20099
:104960008F7E8093E2008091E20081608093E2007C
:104970008091DD05882309F449C084E08093E10536
:104980000E94B3208091E10083FF29C08091E20062
:1049900083FF25C08091E100877F8093E10082E062
:1049A0008093E1051092DD058091E1008E7F809378
:1049B000E1008091E2008E7F8093E2008091E2002E
:1049C00080618093E20042E060E080E00E943A2350
:1049D0008091F00088608093F0000E94B120FF91E8
:1049E000EF91BF91AF919F918F917F916F915F9167
:1049F0004F913F912F910F900FBE0F901F901895E0
:104A000019BC1092E1050E94AE2070CF8091E300A6
:104A100087FD93E09093E105B3CF1F920F920FB6FD
:104A20000F9211242F933F934F935F936F937F9334
:104A30008F939F93AF93BF93CF93DF93EF93FF93A6
:104A4000D091E900DF708091EC00C82FC17080FD2B
:104A5000C0E81092E9008091F000877F8093F00019
:104A600078940E9451251092E9008091F0008860AE
:104A70008093F000CD2BCF70C093E900FF91EF91B0
:104A8000DF91CF91BF91AF919F918F917F916F9166
:104A90005F914F913F912F910F900FBE0F901F90FC
:104AA00018951F93CF93DF93CDB7DEB7AA970FB6B4
:104AB000F894DEBF0FBECDBF82EE95E02091F100ED
:104AC000FC012193CF01F5E08A3E9F07B9F70E94D0
:104AD000BE208091E80083FF1EC18091E205909185
:104AE000E3059A3008F017C1E92FF0E0E15BF84DDB
:104AF0000C94D326803899F0823809F00CC180914B
:104B0000E6058F70873008F006C18093E900809138
:104B1000EB0085FB882780F91092E90006C08091A0
:104B2000DE059091DF05911182609091E800977FFA
:104B30009093E8008093F1001092F1008091E800DA
:104B40008E77E5C0882309F4D3C0823009F0E3C032
:104B50008091E4058111D6C08091E6058F702FEF1A
:104B6000280F263008F0D7C08093E9002091EB0091
:104B700020FFC8C0933031F48091EB0080628093B5
:104B8000EB00C0C09091EB0090619093EB0021E0AE
:104B900030E001C0220F8A95EAF72093EA001092D4
:104BA000EA008091EB008860EACF8111B4C01091D7
:104BB000E4051F778091E3008078812B8093E300E8
:104BC0008091E800877F8093E8000E946E238091A7
:104BD000E80080FFFCCF8091E30080688093E300D1
:104BE00082E0111183E08093E10595C08058823006
:104BF00008F091C08091E4059091E5058C3D23E09B
:104C00009207A1F583E08A838AE289834FB7F894FB
:104C1000DE01139620E03EE051E2E32FF0E05093F6
:104C20005700E49120FF03C0E295EF703F5FEF7003
:104C30008E2F90E0EA30C0F0C7968D939D932F5F42
:104C4000243159F74FBF8091E800877F8093E800B7
:104C50006AE270E0CE0101960E947D228091E80018
:104C60008B778093E80057C0C096E7CF6091E60548
:104C70007091E705AE014F5F5F4F0E94BE21BC01FE
:104C8000892B09F448C09091E800977F9093E80041
:104C900089819A810E94DB22E1CF8038E1F5809101
:104CA000E800877F8093E8008091DD058093F10024
:104CB00045CF811130C09091E405923060F580912C
:104CC000E800877F8093E8009093DD050E946E23C3
:104CD0008091DD05882311F084E005C08091E30018
:104CE00087FDFACF81E08093E1050E94B42013C0D4
:104CF0008091E405813079F481E0933009F080E01F
:104D00008093DF051092E9008091E800877F80930F
:104D1000E8000E946E238091E80083FF0AC0809122
:104D2000E800877F8093E8008091EB0080628093A9
:104D3000EB00AA960FB6F894DEBF0FBECDBFDF9191
:104D4000CF911F9108950895CF938091E105882315
:104D5000A1F0C091E900CF709091EC00892F817093
:104D600090FD80E8C82B1092E9008091E80083FD57
:104D70000E945125CF70C093E900CF91089597FB11
:104D8000072E16F4009407D077FD09D00E94D9268B
:104D900007FC05D03EF4909581959F4F089570953E
:104DA00061957F4F0895EE0FFF1F0590F491E02D60
:104DB0000994AA1BBB1B51E107C0AA1FBB1FA61762
:104DC000B70710F0A61BB70B881F991F5A95A9F7B4
:104DD00080959095BC01CD010895F999FECF92BDC3
:104DE00081BDF89A992780B50895A8E1B0E042E026
:104DF00050E00C942127262FF999FECF92BD81BD5A
:104E0000F89A019700B4021639F01FBA20BD0FB608
:104E1000F894FA9AF99A0FBE08950396272F0E94E4
:104E2000FC260E94FB26252F0E94FC26242F0C9492
:104E3000FC260196272F0E94FC260C94FB26DC0101
:104E4000CB01FC01F999FECF06C0F2BDE1BDF89A95
:104E5000319600B40D9241505040B8F70895F8943F
:104E6000FFCF1115111569156915B415D0153E152B
:104E70003E15DB15671676167616D1163E153E15CD
:104E8000DA165D175D1766176617681766176617D7
:104E900066175D175D176D17661766176D177A250C
:104EA000A2258B26A2258B26D525F6258B264D26D9
:024EB000592681
:104EB2002808643C0714EC04F2018A0501206020F2
:104EC2003F203B20372001E200E900EA00B500B6AE
:104ED20000B700CD008301CC008A01920194012128
:104EE20002230224022502260227022A02B300B468
:104EF200006F007000818283E200E900EA00B500E1
:104F0200B600B700CD008301CC008A019201940162
:104F12002102230224022502260227022A02B300CA
:0A4F2200B4006F007000818283006C
:00000001FF
